{
  "_format": "hh-sol-artifact-1",
  "contractName": "TitanBuy",
  "sourceName": "contracts/TitanBuy.sol",
  "abi": [
    {
      "inputs": [],
      "stateMutability": "nonpayable",
      "type": "constructor"
    },
    {
      "inputs": [
        {
          "internalType": "address",
          "name": "target",
          "type": "address"
        }
      ],
      "name": "AddressEmptyCode",
      "type": "error"
    },
    {
      "inputs": [
        {
          "internalType": "address",
          "name": "account",
          "type": "address"
        }
      ],
      "name": "AddressInsufficientBalance",
      "type": "error"
    },
    {
      "inputs": [],
      "name": "CooldownPeriodActive",
      "type": "error"
    },
    {
      "inputs": [],
      "name": "FailedInnerCall",
      "type": "error"
    },
    {
      "inputs": [],
      "name": "InvalidCaller",
      "type": "error"
    },
    {
      "inputs": [],
      "name": "InvalidDragonAddress",
      "type": "error"
    },
    {
      "inputs": [],
      "name": "MathOverflowedMulDiv",
      "type": "error"
    },
    {
      "inputs": [],
      "name": "NoWethToBuyTitan",
      "type": "error"
    },
    {
      "inputs": [
        {
          "internalType": "address",
          "name": "owner",
          "type": "address"
        }
      ],
      "name": "OwnableInvalidOwner",
      "type": "error"
    },
    {
      "inputs": [
        {
          "internalType": "address",
          "name": "account",
          "type": "address"
        }
      ],
      "name": "OwnableUnauthorizedAccount",
      "type": "error"
    },
    {
      "inputs": [],
      "name": "ReentrancyGuardReentrantCall",
      "type": "error"
    },
    {
      "inputs": [
        {
          "internalType": "address",
          "name": "token",
          "type": "address"
        }
      ],
      "name": "SafeERC20FailedOperation",
      "type": "error"
    },
    {
      "anonymous": false,
      "inputs": [
        {
          "indexed": true,
          "internalType": "address",
          "name": "previousOwner",
          "type": "address"
        },
        {
          "indexed": true,
          "internalType": "address",
          "name": "newOwner",
          "type": "address"
        }
      ],
      "name": "OwnershipTransferStarted",
      "type": "event"
    },
    {
      "anonymous": false,
      "inputs": [
        {
          "indexed": true,
          "internalType": "address",
          "name": "previousOwner",
          "type": "address"
        },
        {
          "indexed": true,
          "internalType": "address",
          "name": "newOwner",
          "type": "address"
        }
      ],
      "name": "OwnershipTransferred",
      "type": "event"
    },
    {
      "anonymous": false,
      "inputs": [
        {
          "indexed": true,
          "internalType": "uint256",
          "name": "weth",
          "type": "uint256"
        },
        {
          "indexed": true,
          "internalType": "uint256",
          "name": "titan",
          "type": "uint256"
        },
        {
          "indexed": true,
          "internalType": "address",
          "name": "caller",
          "type": "address"
        }
      ],
      "name": "TitanBought",
      "type": "event"
    },
    {
      "stateMutability": "nonpayable",
      "type": "fallback"
    },
    {
      "inputs": [],
      "name": "acceptOwnership",
      "outputs": [],
      "stateMutability": "nonpayable",
      "type": "function"
    },
    {
      "inputs": [],
      "name": "buyTitanX",
      "outputs": [
        {
          "internalType": "uint256",
          "name": "amountOut",
          "type": "uint256"
        }
      ],
      "stateMutability": "nonpayable",
      "type": "function"
    },
    {
      "inputs": [
        {
          "internalType": "uint256",
          "name": "amountIn",
          "type": "uint256"
        }
      ],
      "name": "calculateMinimumTitanAmount",
      "outputs": [
        {
          "internalType": "uint256",
          "name": "",
          "type": "uint256"
        }
      ],
      "stateMutability": "view",
      "type": "function"
    },
    {
      "inputs": [],
      "name": "capPerSwap",
      "outputs": [
        {
          "internalType": "uint256",
          "name": "",
          "type": "uint256"
        }
      ],
      "stateMutability": "view",
      "type": "function"
    },
    {
      "inputs": [],
      "name": "dragonAddress",
      "outputs": [
        {
          "internalType": "address",
          "name": "",
          "type": "address"
        }
      ],
      "stateMutability": "view",
      "type": "function"
    },
    {
      "inputs": [
        {
          "internalType": "uint256",
          "name": "baseAmount",
          "type": "uint256"
        }
      ],
      "name": "getTitanQuoteForEth",
      "outputs": [
        {
          "internalType": "uint256",
          "name": "quote",
          "type": "uint256"
        }
      ],
      "stateMutability": "view",
      "type": "function"
    },
    {
      "inputs": [],
      "name": "incentiveFeeForRunningBuyTitanX",
      "outputs": [
        {
          "internalType": "uint256",
          "name": "fee",
          "type": "uint256"
        }
      ],
      "stateMutability": "view",
      "type": "function"
    },
    {
      "inputs": [],
      "name": "interval",
      "outputs": [
        {
          "internalType": "uint256",
          "name": "",
          "type": "uint256"
        }
      ],
      "stateMutability": "view",
      "type": "function"
    },
    {
      "inputs": [],
      "name": "lastCallTs",
      "outputs": [
        {
          "internalType": "uint256",
          "name": "",
          "type": "uint256"
        }
      ],
      "stateMutability": "view",
      "type": "function"
    },
    {
      "inputs": [],
      "name": "owner",
      "outputs": [
        {
          "internalType": "address",
          "name": "",
          "type": "address"
        }
      ],
      "stateMutability": "view",
      "type": "function"
    },
    {
      "inputs": [],
      "name": "pendingOwner",
      "outputs": [
        {
          "internalType": "address",
          "name": "",
          "type": "address"
        }
      ],
      "stateMutability": "view",
      "type": "function"
    },
    {
      "inputs": [],
      "name": "renounceOwnership",
      "outputs": [],
      "stateMutability": "nonpayable",
      "type": "function"
    },
    {
      "inputs": [
        {
          "internalType": "uint256",
          "name": "secs",
          "type": "uint256"
        }
      ],
      "name": "setBuyAndBurnInterval",
      "outputs": [],
      "stateMutability": "nonpayable",
      "type": "function"
    },
    {
      "inputs": [
        {
          "internalType": "uint256",
          "name": "amount",
          "type": "uint256"
        }
      ],
      "name": "setCapPerSwap",
      "outputs": [],
      "stateMutability": "nonpayable",
      "type": "function"
    },
    {
      "inputs": [
        {
          "internalType": "address",
          "name": "dragonAddress_",
          "type": "address"
        }
      ],
      "name": "setDragonContractAddress",
      "outputs": [],
      "stateMutability": "nonpayable",
      "type": "function"
    },
    {
      "inputs": [
        {
          "internalType": "uint256",
          "name": "amount",
          "type": "uint256"
        }
      ],
      "name": "setSlippage",
      "outputs": [],
      "stateMutability": "nonpayable",
      "type": "function"
    },
    {
      "inputs": [
        {
          "internalType": "uint32",
          "name": "mins",
          "type": "uint32"
        }
      ],
      "name": "setTitanPriceTwa",
      "outputs": [],
      "stateMutability": "nonpayable",
      "type": "function"
    },
    {
      "inputs": [],
      "name": "slippage",
      "outputs": [
        {
          "internalType": "uint256",
          "name": "",
          "type": "uint256"
        }
      ],
      "stateMutability": "view",
      "type": "function"
    },
    {
      "inputs": [],
      "name": "totalTitanBought",
      "outputs": [
        {
          "internalType": "uint256",
          "name": "",
          "type": "uint256"
        }
      ],
      "stateMutability": "view",
      "type": "function"
    },
    {
      "inputs": [],
      "name": "totalWethForBuy",
      "outputs": [
        {
          "internalType": "uint256",
          "name": "balance",
          "type": "uint256"
        }
      ],
      "stateMutability": "view",
      "type": "function"
    },
    {
      "inputs": [],
      "name": "totalWethUsedForBuys",
      "outputs": [
        {
          "internalType": "uint256",
          "name": "",
          "type": "uint256"
        }
      ],
      "stateMutability": "view",
      "type": "function"
    },
    {
      "inputs": [
        {
          "internalType": "address",
          "name": "newOwner",
          "type": "address"
        }
      ],
      "name": "transferOwnership",
      "outputs": [],
      "stateMutability": "nonpayable",
      "type": "function"
    },
    {
      "inputs": [],
      "name": "wethForNextBuy",
      "outputs": [
        {
          "internalType": "uint256",
          "name": "forBuy",
          "type": "uint256"
        }
      ],
      "stateMutability": "view",
      "type": "function"
    },
    {
      "stateMutability": "payable",
      "type": "receive"
    }
  ],
  "bytecode": "0x60806040523480156200001157600080fd5b5033806200003957604051631e4fbdf760e01b81526000600482015260240160405180910390fd5b620000448162000076565b506001600255669fdf42f6e480006007556005600455610e10600955600a805463ffffffff1916600f179055620000e4565b600180546001600160a01b0319169055620000918162000094565b50565b600080546001600160a01b038381166001600160a01b0319831681178455604051919092169283917f8be0079c531659141344cd1fd0a4f28419497f9722a3daafe3b4186f6b6457e09190a35050565b612b6d80620000f46000396000f3fe6080604052600436106101845760003560e01c80638c14a5d6116100d6578063bc7576d31161007f578063e30c397811610059578063e30c3978146104aa578063f0fa55a9146104c8578063f2fde38b146104e85761020f565b8063bc7576d31461045f578063c9ae5e0a1461047f578063cce0d6fb146104945761020f565b8063a2b6eef0116100b0578063a2b6eef01461040a578063af97d3bd1461041f578063b35ec4fa1461043f5761020f565b80638c14a5d6146103a25780638da5cb5b146103c2578063947a36fb146103f45761020f565b806349f7e6c611610138578063715018a611610112578063715018a61461036257806379ba509714610377578063812105311461038c5761020f565b806349f7e6c614610317578063612b91cc1461032d578063658a3b3c146103425761020f565b8063217d933211610169578063217d9332146102cb5780632e3d4400146102e15780633e032a3b146103015761020f565b8063098dada514610283578063187cc30e146102a35761020f565b3661020f573373c02aaa39b223fe8d0a0e5c4f27ead9083c756cc21461020d5773c02aaa39b223fe8d0a0e5c4f27ead9083c756cc26001600160a01b031663d0e30db0346040518263ffffffff1660e01b81526004016000604051808303818588803b1580156101f357600080fd5b505af1158015610207573d6000803e3d6000fd5b50505050505b005b34801561021b57600080fd5b506040517f08c379a000000000000000000000000000000000000000000000000000000000815260206004820152601260248201527f46616c6c6261636b20747269676765726564000000000000000000000000000060448201526064015b60405180910390fd5b34801561028f57600080fd5b5061020d61029e366004612373565b610508565b3480156102af57600080fd5b506102b8610515565b6040519081526020015b60405180910390f35b3480156102d757600080fd5b506102b860065481565b3480156102ed57600080fd5b506102b86102fc366004612373565b6109de565b34801561030d57600080fd5b506102b860045481565b34801561032357600080fd5b506102b860085481565b34801561033957600080fd5b506102b8610b55565b34801561034e57600080fd5b5061020d61035d3660046123a1565b610be9565b34801561036e57600080fd5b5061020d610c6b565b34801561038357600080fd5b5061020d610c7f565b34801561039857600080fd5b506102b860075481565b3480156103ae57600080fd5b5061020d6103bd3660046123d0565b610cdc565b3480156103ce57600080fd5b506000546001600160a01b03165b6040516001600160a01b0390911681526020016102c2565b34801561040057600080fd5b506102b860095481565b34801561041657600080fd5b506102b8610d9f565b34801561042b57600080fd5b506102b861043a366004612373565b610e47565b34801561044b57600080fd5b506003546103dc906001600160a01b031681565b34801561046b57600080fd5b5061020d61047a366004612373565b610e84565b34801561048b57600080fd5b506102b8610f0a565b3480156104a057600080fd5b506102b860055481565b3480156104b657600080fd5b506001546001600160a01b03166103dc565b3480156104d457600080fd5b5061020d6104e3366004612373565b610f36565b3480156104f457600080fd5b5061020d6105033660046123a1565b610fbb565b610510611044565b600755565b600061051f61108a565b6003546001600160a01b031680610562576040517f90a3742300000000000000000000000000000000000000000000000000000000815260040160405180910390fd5b33321461059b576040517f48f5c3ed00000000000000000000000000000000000000000000000000000000815260040160405180910390fd5b6009546008546105ab904261241c565b116105e2576040517f998d019b00000000000000000000000000000000000000000000000000000000815260040160405180910390fd5b426008556040517f70a0823100000000000000000000000000000000000000000000000000000000815230600482015273e592427a0aece92de3edee1f18e0157c058615649073c02aaa39b223fe8d0a0e5c4f27ead9083c756cc29060009082906370a0823190602401602060405180830381865afa158015610669573d6000803e3d6000fd5b505050506040513d601f19601f8201168201806040525081019061068d919061242f565b6007549091508082111561069f578091505b60006127106106b061012c85612448565b6106ba919061248e565b6040517f2e1a7d4d000000000000000000000000000000000000000000000000000000008152600481018290529091506001600160a01b03851690632e1a7d4d90602401600060405180830381600087803b15801561071857600080fd5b505af115801561072c573d6000803e3d6000fd5b50505050808361073c919061241c565b925082600003610778576040517f05ab636500000000000000000000000000000000000000000000000000000000815260040160405180910390fd5b61078c6001600160a01b03851686856110cb565b600061079784610e47565b604080516101008101825273c02aaa39b223fe8d0a0e5c4f27ead9083c756cc2815273f19308f923582a6f7c465e5ce7a9dc1bec6665b1602082015261271091810191909152306060820152909150600090608081016107f84260016124a2565b815260208082018890526040808301869052600060609384015280517f414bf38900000000000000000000000000000000000000000000000000000000815284516001600160a01b03908116600483015292850151831660248201529084015162ffffff16604482015291830151811660648301526080830151608483015260a083015160a483015260c083015160c483015260e0830151811660e48301529192509088169063414bf38990610104016020604051808303816000875af11580156108c7573d6000803e3d6000fd5b505050506040513d601f19601f820116820180604052508101906108eb919061242f565b985061090c73f19308f923582a6f7c465e5ce7a9dc1bec6665b1898b611174565b876001600160a01b0316637196e8416040518163ffffffff1660e01b8152600401600060405180830381600087803b15801561094757600080fd5b505af115801561095b573d6000803e3d6000fd5b50505050846005600082825461097191906124a2565b92505081905550886006600082825461098a91906124a2565b9091555061099a905033846111ed565b60405133908a9087907f2f93a68dc35b09b9752c6b31e27bb7a7bafc4c49611843b94b8189cb328399af90600090a450505050505050506109db6001600255565b90565b600080610a33731f98431c8ad98523631ae4a59f267346ea31f984610a2e73c02aaa39b223fe8d0a0e5c4f27ead9083c756cc273f19308f923582a6f7c465e5ce7a9dc1bec6665b16127106112b6565b61132d565b600a54909150600090610a4d9063ffffffff16603c6124b5565b90506000610a5a8361145f565b90508163ffffffff168163ffffffff161015610a74578091505b60008263ffffffff16600003610afb576000849050806001600160a01b0316633850c7bd6040518163ffffffff1660e01b815260040160e060405180830381865afa158015610ac7573d6000803e3d6000fd5b505050506040513d601f19601f82011682018060405250810190610aeb9190612504565b50949650610b1795505050505050565b6000610b07858561167e565b509050610b1381611922565b9150505b610b4b818773c02aaa39b223fe8d0a0e5c4f27ead9083c756cc273f19308f923582a6f7c465e5ce7a9dc1bec6665b1611db7565b9695505050505050565b6040517f70a0823100000000000000000000000000000000000000000000000000000000815230600482015260009073c02aaa39b223fe8d0a0e5c4f27ead9083c756cc2906370a0823190602401602060405180830381865afa158015610bc0573d6000803e3d6000fd5b505050506040513d601f19601f82011682018060405250810190610be4919061242f565b905090565b610bf1611044565b6001600160a01b038116610c31576040517f90a3742300000000000000000000000000000000000000000000000000000000815260040160405180910390fd5b600380547fffffffffffffffffffffffff0000000000000000000000000000000000000000166001600160a01b0392909216919091179055565b610c73611044565b610c7d6000611ed5565b565b60015433906001600160a01b03168114610cd0576040517f118cdaa70000000000000000000000000000000000000000000000000000000081526001600160a01b038216600482015260240161027a565b610cd981611ed5565b50565b610ce4611044565b60058163ffffffff1610158015610d025750603c8163ffffffff1611155b610d68576040517f08c379a000000000000000000000000000000000000000000000000000000000815260206004820152600a60248201527f356d2d3168206f6e6c7900000000000000000000000000000000000000000000604482015260640161027a565b600a80547fffffffffffffffffffffffffffffffffffffffffffffffffffffffff000000001663ffffffff92909216919091179055565b6007546040517f70a082310000000000000000000000000000000000000000000000000000000081523060048201526000919073c02aaa39b223fe8d0a0e5c4f27ead9083c756cc29081906370a0823190602401602060405180830381865afa158015610e10573d6000803e3d6000fd5b505050506040513d601f19601f82011682018060405250810190610e34919061242f565b925081831115610e42578192505b505090565b600080610e53836109de565b9050600060646004546064610e68919061241c565b610e729084612448565b610e7c919061248e565b949350505050565b610e8c611044565b603c8110158015610e9f575061a8c08111155b610f05576040517f08c379a000000000000000000000000000000000000000000000000000000000815260206004820152600b60248201527f316d2d313268206f6e6c79000000000000000000000000000000000000000000604482015260640161027a565b600955565b600080610f15610d9f565b9050612710610f2661012c83612448565b610f30919061248e565b91505090565b610f3e611044565b60058110158015610f505750600f8111155b610fb6576040517f08c379a000000000000000000000000000000000000000000000000000000000815260206004820152600a60248201527f352d313525206f6e6c7900000000000000000000000000000000000000000000604482015260640161027a565b600455565b610fc3611044565b600180546001600160a01b0383167fffffffffffffffffffffffff0000000000000000000000000000000000000000909116811790915561100c6000546001600160a01b031690565b6001600160a01b03167f38d16b8cac22d99fc7c124b9cd0de2d3fa1faef420bfe791d8c362d765e2270060405160405180910390a350565b6000546001600160a01b03163314610c7d576040517f118cdaa700000000000000000000000000000000000000000000000000000000815233600482015260240161027a565b60028054036110c5576040517f3ee5aeb500000000000000000000000000000000000000000000000000000000815260040160405180910390fd5b60028055565b6040517fdd62ed3e0000000000000000000000000000000000000000000000000000000081523060048201526001600160a01b0383811660248301526000919085169063dd62ed3e90604401602060405180830381865afa158015611134573d6000803e3d6000fd5b505050506040513d601f19601f82011682018060405250810190611158919061242f565b905061116e848461116985856124a2565b611f06565b50505050565b6040516001600160a01b038381166024830152604482018390526111e891859182169063a9059cbb906064015b604051602081830303815290604052915060e01b6020820180517bffffffffffffffffffffffffffffffffffffffffffffffffffffffff8381831617835250505050611fc0565b505050565b80471015611229576040517fcd78605900000000000000000000000000000000000000000000000000000000815230600482015260240161027a565b6000826001600160a01b03168260405160006040518083038185875af1925050503d8060008114611276576040519150601f19603f3d011682016040523d82523d6000602084013e61127b565b606091505b50509050806111e8576040517f1425ea4200000000000000000000000000000000000000000000000000000000815260040160405180910390fd5b6040805160608101825260008082526020820181905291810191909152826001600160a01b0316846001600160a01b031611156112f1579192915b6040518060600160405280856001600160a01b03168152602001846001600160a01b031681526020018362ffffff1681525090505b9392505050565b600081602001516001600160a01b031682600001516001600160a01b03161061135557600080fd5b815160208084015160408086015181516001600160a01b0395861681860152949092168482015262ffffff90911660608085019190915281518085038201815260808501909252815191909201207fff0000000000000000000000000000000000000000000000000000000000000060a08401529085901b7fffffffffffffffffffffffffffffffffffffffff0000000000000000000000001660a183015260b58201527fe34f199b19b2b4f47f68442619d555527d244f78a3297ea89325f843f87b8b5460d582015260f501604080517fffffffffffffffffffffffffffffffffffffffffffffffffffffffffffffffe081840301815291905280516020909101209392505050565b6000806000836001600160a01b0316633850c7bd6040518163ffffffff1660e01b815260040160e060405180830381865afa1580156114a2573d6000803e3d6000fd5b505050506040513d601f19601f820116820180604052508101906114c69190612504565b50505093509350505060008161ffff161161153d576040517f08c379a000000000000000000000000000000000000000000000000000000000815260206004820152600260248201527f4e49000000000000000000000000000000000000000000000000000000000000604482015260640161027a565b6000806001600160a01b03861663252c09d78461155b87600161259e565b61156591906125c0565b6040517fffffffff0000000000000000000000000000000000000000000000000000000060e084901b16815261ffff9091166004820152602401608060405180830381865afa1580156115bc573d6000803e3d6000fd5b505050506040513d601f19601f820116820180604052508101906115e091906125f3565b93505050915080611674576040517f252c09d7000000000000000000000000000000000000000000000000000000008152600060048201526001600160a01b0387169063252c09d790602401608060405180830381865afa158015611649573d6000803e3d6000fd5b505050506040513d601f19601f8201168201806040525081019061166d91906125f3565b5091935050505b610b4b824261264b565b6000808263ffffffff166000036116f1576040517f08c379a000000000000000000000000000000000000000000000000000000000815260206004820152600260248201527f4250000000000000000000000000000000000000000000000000000000000000604482015260640161027a565b604080516002808252606082018352600092602083019080368337019050509050838160008151811061172657611726612697565b602002602001019063ffffffff16908163ffffffff168152505060008160018151811061175557611755612697565b602002602001019063ffffffff16908163ffffffff1681525050600080866001600160a01b031663883bdbfd846040518263ffffffff1660e01b815260040161179e91906126c6565b600060405180830381865afa1580156117bb573d6000803e3d6000fd5b505050506040513d6000823e601f3d9081017fffffffffffffffffffffffffffffffffffffffffffffffffffffffffffffffe016820160405261180191908101906127f7565b9150915060008260008151811061181a5761181a612697565b60200260200101518360018151811061183557611835612697565b602002602001015161184791906128ba565b905060008260008151811061185e5761185e612697565b60200260200101518360018151811061187957611879612697565b602002602001015161188b91906128ff565b905063ffffffff881661189e818461291f565b975060008360060b1280156118be57506118b88184612993565b60060b15155b156118d157876118cd816129b5565b9850505b63ffffffff891677ffffffffffffffffffffffffffffffffffffffff00000000602084901b166119086001600160a01b0383612a12565b6119129190612a55565b9750505050505050509250929050565b60008060008360020b12611939578260020b611946565b8260020b61194690612a8c565b90506119717ffffffffffffffffffffffffffffffffffffffffffffffffffffffffffff27618612ac4565b60020b8111156119dd576040517f08c379a000000000000000000000000000000000000000000000000000000000815260206004820152600160248201527f5400000000000000000000000000000000000000000000000000000000000000604482015260640161027a565b600081600116600003611a0157700100000000000000000000000000000000611a13565b6ffffcb933bd6fad37aa2d162d1a5940015b70ffffffffffffffffffffffffffffffffff1690506002821615611a52576080611a4d826ffff97272373d413259a46990580e213a612448565b901c90505b6004821615611a7c576080611a77826ffff2e50f5f656932ef12357cf3c7fdcc612448565b901c90505b6008821615611aa6576080611aa1826fffe5caca7e10e4e61c3624eaa0941cd0612448565b901c90505b6010821615611ad0576080611acb826fffcb9843d60f6159c9db58835c926644612448565b901c90505b6020821615611afa576080611af5826fff973b41fa98c081472e6896dfb254c0612448565b901c90505b6040821615611b24576080611b1f826fff2ea16466c96a3843ec78b326b52861612448565b901c90505b6080821615611b4e576080611b49826ffe5dee046a99a2a811c461f1969c3053612448565b901c90505b610100821615611b79576080611b74826ffcbe86c7900a88aedcffc83b479aa3a4612448565b901c90505b610200821615611ba4576080611b9f826ff987a7253ac413176f2b074cf7815e54612448565b901c90505b610400821615611bcf576080611bca826ff3392b0822b70005940c7a398e4b70f3612448565b901c90505b610800821615611bfa576080611bf5826fe7159475a2c29b7443b29c7fa6e889d9612448565b901c90505b611000821615611c25576080611c20826fd097f3bdfd2022b8845ad8f792aa5825612448565b901c90505b612000821615611c50576080611c4b826fa9f746462d870fdf8a65dc1f90e061e5612448565b901c90505b614000821615611c7b576080611c76826f70d869a156d2a1b890bb3df62baf32f7612448565b901c90505b618000821615611ca6576080611ca1826f31be135f97d08fd981231505542fcfa6612448565b901c90505b62010000821615611cd2576080611ccd826f09aa508b5b7a84e1c677de54f3e99bc9612448565b901c90505b62020000821615611cfd576080611cf8826e5d6af8dedb81196699c329225ee604612448565b901c90505b62040000821615611d27576080611d22826d2216e584f5fa1ea926041bedfe98612448565b901c90505b62080000821615611d4f576080611d4a826b048a170391f7dc42444e8fa2612448565b901c90505b60008460020b1315611d8857611d85817fffffffffffffffffffffffffffffffffffffffffffffffffffffffffffffffff61248e565b90505b611d9764010000000082612b02565b15611da3576001611da6565b60005b610e7c9060ff16602083901c6124a2565b60006fffffffffffffffffffffffffffffffff6001600160a01b03861611611e5e576000611dee6001600160a01b03871680612448565b9050826001600160a01b0316846001600160a01b031610611e3257611e2d7801000000000000000000000000000000000000000000000000868361203c565b611e56565b611e568186780100000000000000000000000000000000000000000000000061203c565b915050610e7c565b6000611e7d6001600160a01b038716806801000000000000000061203c565b9050826001600160a01b0316846001600160a01b031610611eb957611eb4700100000000000000000000000000000000868361203c565b610b4b565b610b4b818670010000000000000000000000000000000061203c565b600180547fffffffffffffffffffffffff0000000000000000000000000000000000000000169055610cd981612137565b604080516001600160a01b038416602482015260448082018490528251808303909101815260649091019091526020810180517bffffffffffffffffffffffffffffffffffffffffffffffffffffffff167f095ea7b300000000000000000000000000000000000000000000000000000000179052611f85848261219f565b61116e576040516001600160a01b03848116602483015260006044830152611fba91869182169063095ea7b3906064016111a1565b61116e84825b6000611fd56001600160a01b03841683612249565b90508051600014158015611ffa575080806020019051810190611ff89190612b16565b155b156111e8576040517f5274afe70000000000000000000000000000000000000000000000000000000081526001600160a01b038416600482015260240161027a565b6000838302817fffffffffffffffffffffffffffffffffffffffffffffffffffffffffffffffff8587098281108382030391505080600003612091578382816120875761208761245f565b0492505050611326565b8084116120ca576040517f227bc15300000000000000000000000000000000000000000000000000000000815260040160405180910390fd5b6000848688096000868103871696879004966002600389028118808a02820302808a02820302808a02820302808a02820302808a02820302808a02909103029181900381900460010186841190950394909402919094039290920491909117919091029150509392505050565b600080546001600160a01b038381167fffffffffffffffffffffffff0000000000000000000000000000000000000000831681178455604051919092169283917f8be0079c531659141344cd1fd0a4f28419497f9722a3daafe3b4186f6b6457e09190a35050565b6000806000846001600160a01b0316846040516121bc9190612b31565b6000604051808303816000865af19150503d80600081146121f9576040519150601f19603f3d011682016040523d82523d6000602084013e6121fe565b606091505b50915091508180156122285750805115806122285750808060200190518101906122289190612b16565b801561223e57506000856001600160a01b03163b115b925050505b92915050565b60606113268383600084600080856001600160a01b0316848660405161226f9190612b31565b60006040518083038185875af1925050503d80600081146122ac576040519150601f19603f3d011682016040523d82523d6000602084013e6122b1565b606091505b5091509150610b4b8683836060826122d1576122cc82612331565b611326565b81511580156122e857506001600160a01b0384163b155b1561232a576040517f9996b3150000000000000000000000000000000000000000000000000000000081526001600160a01b038516600482015260240161027a565b5080611326565b8051156123415780518082602001fd5b6040517f1425ea4200000000000000000000000000000000000000000000000000000000815260040160405180910390fd5b60006020828403121561238557600080fd5b5035919050565b6001600160a01b0381168114610cd957600080fd5b6000602082840312156123b357600080fd5b81356113268161238c565b63ffffffff81168114610cd957600080fd5b6000602082840312156123e257600080fd5b8135611326816123be565b7f4e487b7100000000000000000000000000000000000000000000000000000000600052601160045260246000fd5b81810381811115612243576122436123ed565b60006020828403121561244157600080fd5b5051919050565b8082028115828204841417612243576122436123ed565b7f4e487b7100000000000000000000000000000000000000000000000000000000600052601260045260246000fd5b60008261249d5761249d61245f565b500490565b80820180821115612243576122436123ed565b63ffffffff8181168382160280821691908281146124d5576124d56123ed565b505092915050565b805161ffff811681146124ef57600080fd5b919050565b805180151581146124ef57600080fd5b600080600080600080600060e0888a03121561251f57600080fd5b875161252a8161238c565b8097505060208801518060020b811461254257600080fd5b9550612550604089016124dd565b945061255e606089016124dd565b935061256c608089016124dd565b925060a088015160ff8116811461258257600080fd5b915061259060c089016124f4565b905092959891949750929550565b61ffff8181168382160190808211156125b9576125b96123ed565b5092915050565b600061ffff808416806125d5576125d561245f565b92169190910692915050565b8051600681900b81146124ef57600080fd5b6000806000806080858703121561260957600080fd5b8451612614816123be565b9350612622602086016125e1565b925060408501516126328161238c565b9150612640606086016124f4565b905092959194509250565b63ffffffff8281168282160390808211156125b9576125b96123ed565b7f4e487b7100000000000000000000000000000000000000000000000000000000600052604160045260246000fd5b7f4e487b7100000000000000000000000000000000000000000000000000000000600052603260045260246000fd5b6020808252825182820181905260009190848201906040850190845b8181101561270457835163ffffffff16835292840192918401916001016126e2565b50909695505050505050565b604051601f82017fffffffffffffffffffffffffffffffffffffffffffffffffffffffffffffffe016810167ffffffffffffffff8111828210171561275757612757612668565b604052919050565b600067ffffffffffffffff82111561277957612779612668565b5060051b60200190565b600082601f83011261279457600080fd5b815160206127a96127a48361275f565b612710565b82815260059290921b840181019181810190868411156127c857600080fd5b8286015b848110156127ec5780516127df8161238c565b83529183019183016127cc565b509695505050505050565b6000806040838503121561280a57600080fd5b825167ffffffffffffffff8082111561282257600080fd5b818501915085601f83011261283657600080fd5b815160206128466127a48361275f565b82815260059290921b8401810191818101908984111561286557600080fd5b948201945b8386101561288a5761287b866125e1565b8252948201949082019061286a565b918801519196509093505050808211156128a357600080fd5b506128b085828601612783565b9150509250929050565b600682810b9082900b037fffffffffffffffffffffffffffffffffffffffffffffffffff800000000000008112667fffffffffffff82131715612243576122436123ed565b6001600160a01b038281168282160390808211156125b9576125b96123ed565b60008160060b8360060b806129365761293661245f565b7fffffffffffffffffffffffffffffffffffffffffffffffffffffffffffffffff81147fffffffffffffffffffffffffffffffffffffffffffffffffff800000000000008314161561298a5761298a6123ed565b90059392505050565b60008260060b806129a6576129a661245f565b808360060b0791505092915050565b60008160020b7fffffffffffffffffffffffffffffffffffffffffffffffffffffffffff80000081036129ea576129ea6123ed565b7fffffffffffffffffffffffffffffffffffffffffffffffffffffffffffffffff0192915050565b77ffffffffffffffffffffffffffffffffffffffffffffffff828116828216818102831692918115828504821417612a4c57612a4c6123ed565b50505092915050565b600077ffffffffffffffffffffffffffffffffffffffffffffffff80841680612a8057612a8061245f565b92169190910492915050565b60007f80000000000000000000000000000000000000000000000000000000000000008203612abd57612abd6123ed565b5060000390565b60008160020b7fffffffffffffffffffffffffffffffffffffffffffffffffffffffffff8000008103612af957612af96123ed565b60000392915050565b600082612b1157612b1161245f565b500690565b600060208284031215612b2857600080fd5b611326826124f4565b6000825160005b81811015612b525760208186018101518583015201612b38565b50600092019182525091905056fea164736f6c6343000814000a",
  "linkReferences": {},
  "deployedLinkReferences": {}
}