{
  "_format": "hh-sol-artifact-1",
  "contractName": "DragonBuyAndBurn",
  "sourceName": "contracts/DragonBuyAndBurn.sol",
  "abi": [
    {
      "inputs": [],
      "stateMutability": "nonpayable",
      "type": "constructor"
    },
    {
      "inputs": [
        {
          "internalType": "address",
          "name": "target",
          "type": "address"
        }
      ],
      "name": "AddressEmptyCode",
      "type": "error"
    },
    {
      "inputs": [
        {
          "internalType": "address",
          "name": "account",
          "type": "address"
        }
      ],
      "name": "AddressInsufficientBalance",
      "type": "error"
    },
    {
      "inputs": [],
      "name": "CooldownPeriodActive",
      "type": "error"
    },
    {
      "inputs": [],
      "name": "FailedInnerCall",
      "type": "error"
    },
    {
      "inputs": [],
      "name": "InvalidCaller",
      "type": "error"
    },
    {
      "inputs": [],
      "name": "InvalidDragonAddress",
      "type": "error"
    },
    {
      "inputs": [],
      "name": "MathOverflowedMulDiv",
      "type": "error"
    },
    {
      "inputs": [],
      "name": "NoWethToBuyAndBurnDragon",
      "type": "error"
    },
    {
      "inputs": [
        {
          "internalType": "address",
          "name": "owner",
          "type": "address"
        }
      ],
      "name": "OwnableInvalidOwner",
      "type": "error"
    },
    {
      "inputs": [
        {
          "internalType": "address",
          "name": "account",
          "type": "address"
        }
      ],
      "name": "OwnableUnauthorizedAccount",
      "type": "error"
    },
    {
      "inputs": [],
      "name": "ReentrancyGuardReentrantCall",
      "type": "error"
    },
    {
      "inputs": [
        {
          "internalType": "address",
          "name": "token",
          "type": "address"
        }
      ],
      "name": "SafeERC20FailedOperation",
      "type": "error"
    },
    {
      "anonymous": false,
      "inputs": [
        {
          "indexed": true,
          "internalType": "uint256",
          "name": "weth",
          "type": "uint256"
        },
        {
          "indexed": true,
          "internalType": "uint256",
          "name": "dragon",
          "type": "uint256"
        },
        {
          "indexed": true,
          "internalType": "address",
          "name": "caller",
          "type": "address"
        }
      ],
      "name": "BoughtAndBurned",
      "type": "event"
    },
    {
      "anonymous": false,
      "inputs": [
        {
          "indexed": true,
          "internalType": "uint256",
          "name": "dragon",
          "type": "uint256"
        },
        {
          "indexed": true,
          "internalType": "uint256",
          "name": "titan",
          "type": "uint256"
        },
        {
          "indexed": true,
          "internalType": "address",
          "name": "caller",
          "type": "address"
        }
      ],
      "name": "CollectedFees",
      "type": "event"
    },
    {
      "anonymous": false,
      "inputs": [
        {
          "indexed": true,
          "internalType": "address",
          "name": "previousOwner",
          "type": "address"
        },
        {
          "indexed": true,
          "internalType": "address",
          "name": "newOwner",
          "type": "address"
        }
      ],
      "name": "OwnershipTransferStarted",
      "type": "event"
    },
    {
      "anonymous": false,
      "inputs": [
        {
          "indexed": true,
          "internalType": "address",
          "name": "previousOwner",
          "type": "address"
        },
        {
          "indexed": true,
          "internalType": "address",
          "name": "newOwner",
          "type": "address"
        }
      ],
      "name": "OwnershipTransferred",
      "type": "event"
    },
    {
      "stateMutability": "nonpayable",
      "type": "fallback"
    },
    {
      "inputs": [],
      "name": "acceptOwnership",
      "outputs": [],
      "stateMutability": "nonpayable",
      "type": "function"
    },
    {
      "inputs": [],
      "name": "buyAndBurnDragonX",
      "outputs": [
        {
          "internalType": "uint256",
          "name": "amountOut",
          "type": "uint256"
        }
      ],
      "stateMutability": "nonpayable",
      "type": "function"
    },
    {
      "inputs": [
        {
          "internalType": "uint256",
          "name": "amountIn",
          "type": "uint256"
        }
      ],
      "name": "calculateMinimumDragonAmount",
      "outputs": [
        {
          "internalType": "uint256",
          "name": "",
          "type": "uint256"
        }
      ],
      "stateMutability": "view",
      "type": "function"
    },
    {
      "inputs": [],
      "name": "capPerSwap",
      "outputs": [
        {
          "internalType": "uint256",
          "name": "",
          "type": "uint256"
        }
      ],
      "stateMutability": "view",
      "type": "function"
    },
    {
      "inputs": [],
      "name": "collectFees",
      "outputs": [],
      "stateMutability": "nonpayable",
      "type": "function"
    },
    {
      "inputs": [
        {
          "internalType": "uint256",
          "name": "initialLiquidityAmount",
          "type": "uint256"
        }
      ],
      "name": "createInitialLiquidity",
      "outputs": [],
      "stateMutability": "nonpayable",
      "type": "function"
    },
    {
      "inputs": [],
      "name": "dragonAddress",
      "outputs": [
        {
          "internalType": "address",
          "name": "",
          "type": "address"
        }
      ],
      "stateMutability": "view",
      "type": "function"
    },
    {
      "inputs": [],
      "name": "dragonTitanPoolAddress",
      "outputs": [
        {
          "internalType": "address",
          "name": "",
          "type": "address"
        }
      ],
      "stateMutability": "view",
      "type": "function"
    },
    {
      "inputs": [
        {
          "internalType": "uint256",
          "name": "baseAmount",
          "type": "uint256"
        }
      ],
      "name": "getDragonQuoteForTitan",
      "outputs": [
        {
          "internalType": "uint256",
          "name": "quote",
          "type": "uint256"
        }
      ],
      "stateMutability": "view",
      "type": "function"
    },
    {
      "inputs": [
        {
          "internalType": "uint256",
          "name": "baseAmount",
          "type": "uint256"
        }
      ],
      "name": "getTitanQuoteForEth",
      "outputs": [
        {
          "internalType": "uint256",
          "name": "quote",
          "type": "uint256"
        }
      ],
      "stateMutability": "view",
      "type": "function"
    },
    {
      "inputs": [],
      "name": "incentiveFeeForRunningBuyAndBurnDragonX",
      "outputs": [
        {
          "internalType": "uint256",
          "name": "fee",
          "type": "uint256"
        }
      ],
      "stateMutability": "view",
      "type": "function"
    },
    {
      "inputs": [],
      "name": "interval",
      "outputs": [
        {
          "internalType": "uint256",
          "name": "",
          "type": "uint256"
        }
      ],
      "stateMutability": "view",
      "type": "function"
    },
    {
      "inputs": [],
      "name": "lastCallTs",
      "outputs": [
        {
          "internalType": "uint256",
          "name": "",
          "type": "uint256"
        }
      ],
      "stateMutability": "view",
      "type": "function"
    },
    {
      "inputs": [],
      "name": "owner",
      "outputs": [
        {
          "internalType": "address",
          "name": "",
          "type": "address"
        }
      ],
      "stateMutability": "view",
      "type": "function"
    },
    {
      "inputs": [],
      "name": "pendingOwner",
      "outputs": [
        {
          "internalType": "address",
          "name": "",
          "type": "address"
        }
      ],
      "stateMutability": "view",
      "type": "function"
    },
    {
      "inputs": [],
      "name": "renounceOwnership",
      "outputs": [],
      "stateMutability": "nonpayable",
      "type": "function"
    },
    {
      "inputs": [
        {
          "internalType": "uint256",
          "name": "secs",
          "type": "uint256"
        }
      ],
      "name": "setBuyAndBurnInterval",
      "outputs": [],
      "stateMutability": "nonpayable",
      "type": "function"
    },
    {
      "inputs": [
        {
          "internalType": "uint256",
          "name": "amount",
          "type": "uint256"
        }
      ],
      "name": "setCapPerSwap",
      "outputs": [],
      "stateMutability": "nonpayable",
      "type": "function"
    },
    {
      "inputs": [
        {
          "internalType": "address",
          "name": "dragonAddress_",
          "type": "address"
        }
      ],
      "name": "setDragonContractAddress",
      "outputs": [],
      "stateMutability": "nonpayable",
      "type": "function"
    },
    {
      "inputs": [
        {
          "internalType": "uint32",
          "name": "mins",
          "type": "uint32"
        }
      ],
      "name": "setDragonPriceTwa",
      "outputs": [],
      "stateMutability": "nonpayable",
      "type": "function"
    },
    {
      "inputs": [
        {
          "internalType": "uint256",
          "name": "amount",
          "type": "uint256"
        }
      ],
      "name": "setSlippage",
      "outputs": [],
      "stateMutability": "nonpayable",
      "type": "function"
    },
    {
      "inputs": [
        {
          "internalType": "uint32",
          "name": "mins",
          "type": "uint32"
        }
      ],
      "name": "setTitanPriceTwa",
      "outputs": [],
      "stateMutability": "nonpayable",
      "type": "function"
    },
    {
      "inputs": [],
      "name": "slippage",
      "outputs": [
        {
          "internalType": "uint256",
          "name": "",
          "type": "uint256"
        }
      ],
      "stateMutability": "view",
      "type": "function"
    },
    {
      "inputs": [],
      "name": "totalDragonBurned",
      "outputs": [
        {
          "internalType": "uint256",
          "name": "",
          "type": "uint256"
        }
      ],
      "stateMutability": "view",
      "type": "function"
    },
    {
      "inputs": [],
      "name": "totalDragonFeesBurned",
      "outputs": [
        {
          "internalType": "uint256",
          "name": "",
          "type": "uint256"
        }
      ],
      "stateMutability": "view",
      "type": "function"
    },
    {
      "inputs": [],
      "name": "totalTitanFeeCollected",
      "outputs": [
        {
          "internalType": "uint256",
          "name": "",
          "type": "uint256"
        }
      ],
      "stateMutability": "view",
      "type": "function"
    },
    {
      "inputs": [],
      "name": "totalWethForBuyAndBurn",
      "outputs": [
        {
          "internalType": "uint256",
          "name": "balance",
          "type": "uint256"
        }
      ],
      "stateMutability": "view",
      "type": "function"
    },
    {
      "inputs": [],
      "name": "totalWethUsedForBuyAndBurns",
      "outputs": [
        {
          "internalType": "uint256",
          "name": "",
          "type": "uint256"
        }
      ],
      "stateMutability": "view",
      "type": "function"
    },
    {
      "inputs": [
        {
          "internalType": "address",
          "name": "newOwner",
          "type": "address"
        }
      ],
      "name": "transferOwnership",
      "outputs": [],
      "stateMutability": "nonpayable",
      "type": "function"
    },
    {
      "inputs": [],
      "name": "wethForNextBuyAndBurn",
      "outputs": [
        {
          "internalType": "uint256",
          "name": "forBuy",
          "type": "uint256"
        }
      ],
      "stateMutability": "view",
      "type": "function"
    },
    {
      "stateMutability": "payable",
      "type": "receive"
    }
  ],
  "bytecode": "0x60806040523480156200001157600080fd5b5033806200003957604051631e4fbdf760e01b81526000600482015260240160405180910390fd5b62000044816200007d565b506001600255669fdf42f6e480006009556005600455610e10600b55600e80546001600160401b031916640f0000000f179055620000eb565b600180546001600160a01b031916905562000098816200009b565b50565b600080546001600160a01b038381166001600160a01b0319831681178455604051919092169283917f8be0079c531659141344cd1fd0a4f28419497f9722a3daafe3b4186f6b6457e09190a35050565b613abc80620000fb6000396000f3fe6080604052600436106101d15760003560e01c80638c14a5d6116100f7578063d43e158c11610095578063e70b7d0911610064578063e70b7d09146105a0578063efdcbe6c146105b6578063f0fa55a9146105d6578063f2fde38b146105f65761025c565b8063d43e158c14610537578063d818645814610557578063df79d7521461056c578063e30c3978146105825761025c565b80639fafc686116100d15780639fafc686146104cd578063b35ec4fa146104e2578063bc7576d314610502578063c8796572146105225761025c565b80638c14a5d6146104655780638da5cb5b14610485578063947a36fb146104b75761025c565b8063427983941161016f578063658a3b3c1161013e578063658a3b3c14610405578063715018a61461042557806379ba50971461043a578063812105311461044f5761025c565b806342798394146103a457806349f7e6c6146103c45780634dfb82aa146103da5780635ed88b84146103f05761025c565b80632e3d4400116101ab5780632e3d4400146103395780633831fc3c146103595780633db379a81461036e5780633e032a3b1461038e5761025c565b8063098dada5146102d05780630b1c963a146102f05780631830893b146103235761025c565b3661025c573373c02aaa39b223fe8d0a0e5c4f27ead9083c756cc21461025a5773c02aaa39b223fe8d0a0e5c4f27ead9083c756cc26001600160a01b031663d0e30db0346040518263ffffffff1660e01b81526004016000604051808303818588803b15801561024057600080fd5b505af1158015610254573d6000803e3d6000fd5b50505050505b005b34801561026857600080fd5b506040517f08c379a000000000000000000000000000000000000000000000000000000000815260206004820152601260248201527f46616c6c6261636b20747269676765726564000000000000000000000000000060448201526064015b60405180910390fd5b3480156102dc57600080fd5b5061025a6102eb3660046130cb565b610616565b3480156102fc57600080fd5b5061031061030b3660046130cb565b610623565b6040519081526020015b60405180910390f35b34801561032f57600080fd5b5061031060065481565b34801561034557600080fd5b506103106103543660046130cb565b610777565b34801561036557600080fd5b506103106108e9565b34801561037a57600080fd5b5061025a6103893660046130f6565b610da1565b34801561039a57600080fd5b5061031060045481565b3480156103b057600080fd5b5061025a6103bf3660046130cb565b610e6c565b3480156103d057600080fd5b50610310600a5481565b3480156103e657600080fd5b5061031060085481565b3480156103fc57600080fd5b506103106111bd565b34801561041157600080fd5b5061025a610420366004613128565b611251565b34801561043157600080fd5b5061025a6112d3565b34801561044657600080fd5b5061025a6112e7565b34801561045b57600080fd5b5061031060095481565b34801561047157600080fd5b5061025a6104803660046130f6565b611344565b34801561049157600080fd5b506000546001600160a01b03165b6040516001600160a01b03909116815260200161031a565b3480156104c357600080fd5b50610310600b5481565b3480156104d957600080fd5b50610310611407565b3480156104ee57600080fd5b5060035461049f906001600160a01b031681565b34801561050e57600080fd5b5061025a61051d3660046130cb565b6114af565b34801561052e57600080fd5b5061025a611535565b34801561054357600080fd5b506103106105523660046130cb565b6116f0565b34801561056357600080fd5b50610310611760565b34801561057857600080fd5b5061031060055481565b34801561058e57600080fd5b506001546001600160a01b031661049f565b3480156105ac57600080fd5b5061031060075481565b3480156105c257600080fd5b50600c5461049f906001600160a01b031681565b3480156105e257600080fd5b5061025a6105f13660046130cb565b61178c565b34801561060257600080fd5b5061025a610611366004613128565b611811565b61061e61189a565b600955565b60035460009073f19308f923582a6f7c465e5ce7a9dc1bec6665b1906001600160a01b031682610673731f98431c8ad98523631ae4a59f267346ea31f98461066e84866127106118e0565b611957565b600e5490915060009061069590640100000000900463ffffffff16603c613174565b905060006106a283611a89565b90508163ffffffff168163ffffffff1610156106bc578091505b60008263ffffffff16600003610743576000849050806001600160a01b0316633850c7bd6040518163ffffffff1660e01b815260040160e060405180830381865afa15801561070f573d6000803e3d6000fd5b505050506040513d601f19601f8201168201806040525081019061073391906131c3565b5094965061075f95505050505050565b600061074f8585611ca8565b50905061075b81611f4c565b9150505b61076b818988886123e9565b98975050505050505050565b6000806107c7731f98431c8ad98523631ae4a59f267346ea31f98461066e73c02aaa39b223fe8d0a0e5c4f27ead9083c756cc273f19308f923582a6f7c465e5ce7a9dc1bec6665b16127106118e0565b600e549091506000906107e19063ffffffff16603c613174565b905060006107ee83611a89565b90508163ffffffff168163ffffffff161015610808578091505b60008263ffffffff1660000361088f576000849050806001600160a01b0316633850c7bd6040518163ffffffff1660e01b815260040160e060405180830381865afa15801561085b573d6000803e3d6000fd5b505050506040513d601f19601f8201168201806040525081019061087f91906131c3565b509496506108ab95505050505050565b600061089b8585611ca8565b5090506108a781611f4c565b9150505b6108df818773c02aaa39b223fe8d0a0e5c4f27ead9083c756cc273f19308f923582a6f7c465e5ce7a9dc1bec6665b16123e9565b9695505050505050565b60006108f3612507565b6003546001600160a01b031680610936576040517f90a3742300000000000000000000000000000000000000000000000000000000815260040160405180910390fd5b33321461096f576040517f48f5c3ed00000000000000000000000000000000000000000000000000000000815260040160405180910390fd5b600b54600a5461097f904261325d565b116109b6576040517f998d019b00000000000000000000000000000000000000000000000000000000815260040160405180910390fd5b42600a556040517f70a0823100000000000000000000000000000000000000000000000000000000815230600482015273e592427a0aece92de3edee1f18e0157c058615649073c02aaa39b223fe8d0a0e5c4f27ead9083c756cc29060009082906370a0823190602401602060405180830381865afa158015610a3d573d6000803e3d6000fd5b505050506040513d601f19601f82011682018060405250810190610a619190613270565b60095490915080821115610a73578091505b6000612710610a8461012c85613289565b610a8e91906132cf565b6040517f2e1a7d4d000000000000000000000000000000000000000000000000000000008152600481018290529091506001600160a01b03851690632e1a7d4d90602401600060405180830381600087803b158015610aec57600080fd5b505af1158015610b00573d6000803e3d6000fd5b505050508083610b10919061325d565b925082600003610b4c576040517f9fa351b400000000000000000000000000000000000000000000000000000000815260040160405180910390fd5b610b606001600160a01b0385168685612548565b604080517fc02aaa39b223fe8d0a0e5c4f27ead9083c756cc200000000000000000000000060208201527e27100000000000000000000000000000000000000000000000000000000000603482018190527ff19308f923582a6f7c465e5ce7a9dc1bec6665b10000000000000000000000006037830152604b8201527fffffffffffffffffffffffffffffffffffffffff000000000000000000000000606089901b16604e8201528151604281830301815260629091019091526000610c25856116f0565b6040805160a081018252848152306020820152919250600091908101610c4c4260016132e3565b8152602001878152602001838152509050876001600160a01b031663c04b8d59826040518263ffffffff1660e01b8152600401610c89919061331a565b6020604051808303816000875af1158015610ca8573d6000803e3d6000fd5b505050506040513d601f19601f82011682018060405250810190610ccc9190613270565b9950886001600160a01b03166344df8e706040518163ffffffff1660e01b8152600401600060405180830381600087803b158015610d0957600080fd5b505af1158015610d1d573d6000803e3d6000fd5b505050508560056000828254610d3391906132e3565b925050819055508960066000828254610d4c91906132e3565b90915550610d5c905033856125eb565b60405133908b9088907f1b6fe3d614107093562b62b9236e265cac820f430060c5eb674a70824a7435db90600090a4505050505050505050610d9e6001600255565b90565b610da961189a565b60058163ffffffff1610158015610dc75750603c8163ffffffff1611155b610e2d576040517f08c379a000000000000000000000000000000000000000000000000000000000815260206004820152600a60248201527f356d2d3168206f6e6c790000000000000000000000000000000000000000000060448201526064016102c7565b600e805463ffffffff909216640100000000027fffffffffffffffffffffffffffffffffffffffffffffffff00000000ffffffff909216919091179055565b610e7461189a565b6003546001600160a01b031680610eb7576040517f90a3742300000000000000000000000000000000000000000000000000000000815260040160405180910390fd5b6040517fc947449200000000000000000000000000000000000000000000000000000000815260048101839052819073f19308f923582a6f7c465e5ce7a9dc1bec6665b1906001600160a01b0383169063c947449290602401600060405180830381600087803b158015610f2a57600080fd5b505af1158015610f3e573d6000803e3d6000fd5b5050505083816001600160a01b031663dd62ed3e610f593390565b6040517fffffffff0000000000000000000000000000000000000000000000000000000060e084901b1681526001600160a01b039091166004820152306024820152604401602060405180830381865afa158015610fbb573d6000803e3d6000fd5b505050506040513d601f19601f82011682018060405250810190610fdf9190613270565b1015611047576040517f08c379a000000000000000000000000000000000000000000000000000000000815260206004820152601160248201527f616c6c6f77616e636520746f6f206c6f7700000000000000000000000000000060448201526064016102c7565b836001600160a01b0382166370a08231336040517fffffffff0000000000000000000000000000000000000000000000000000000060e084901b1681526001600160a01b039091166004820152602401602060405180830381865afa1580156110b4573d6000803e3d6000fd5b505050506040513d601f19601f820116820180604052508101906110d89190613270565b1015611140576040517f08c379a000000000000000000000000000000000000000000000000000000000815260206004820152600f60248201527f62616c616e636520746f6f206c6f77000000000000000000000000000000000060448201526064016102c7565b6111556001600160a01b0382163330876126b9565b61117d6001600160a01b03831673c36442b4a4522e871399cd717abdd847ab11fe8886612548565b6111a56001600160a01b03821673c36442b4a4522e871399cd717abdd847ab11fe8886612548565b6111ae84612735565b6111b7846128a9565b50505050565b6040517f70a0823100000000000000000000000000000000000000000000000000000000815230600482015260009073c02aaa39b223fe8d0a0e5c4f27ead9083c756cc2906370a0823190602401602060405180830381865afa158015611228573d6000803e3d6000fd5b505050506040513d601f19601f8201168201806040525081019061124c9190613270565b905090565b61125961189a565b6001600160a01b038116611299576040517f90a3742300000000000000000000000000000000000000000000000000000000815260040160405180910390fd5b600380547fffffffffffffffffffffffff0000000000000000000000000000000000000000166001600160a01b0392909216919091179055565b6112db61189a565b6112e56000612abc565b565b60015433906001600160a01b03168114611338576040517f118cdaa70000000000000000000000000000000000000000000000000000000081526001600160a01b03821660048201526024016102c7565b61134181612abc565b50565b61134c61189a565b60058163ffffffff161015801561136a5750603c8163ffffffff1611155b6113d0576040517f08c379a000000000000000000000000000000000000000000000000000000000815260206004820152600a60248201527f356d2d3168206f6e6c790000000000000000000000000000000000000000000060448201526064016102c7565b600e80547fffffffffffffffffffffffffffffffffffffffffffffffffffffffff000000001663ffffffff92909216919091179055565b6009546040517f70a082310000000000000000000000000000000000000000000000000000000081523060048201526000919073c02aaa39b223fe8d0a0e5c4f27ead9083c756cc29081906370a0823190602401602060405180830381865afa158015611478573d6000803e3d6000fd5b505050506040513d601f19601f8201168201806040525081019061149c9190613270565b9250818311156114aa578192505b505090565b6114b761189a565b603c81101580156114ca575061a8c08111155b611530576040517f08c379a000000000000000000000000000000000000000000000000000000000815260206004820152600b60248201527f316d2d313268206f6e6c7900000000000000000000000000000000000000000060448201526064016102c7565b600b55565b61153d612507565b6003546001600160a01b031673f19308f923582a6f7c465e5ce7a9dc1bec6665b13360008061156a612aed565b91509150600080856001600160a01b0316876001600160a01b0316101561159557508290508161159b565b50819050825b81600760008282546115ad91906132e3565b9250508190555080600860008282546115c691906132e3565b9250508190555081600660008282546115df91906132e3565b925050819055506000879050806001600160a01b03166344df8e706040518163ffffffff1660e01b8152600401600060405180830381600087803b15801561162657600080fd5b505af115801561163a573d6000803e3d6000fd5b50611653925050506001600160a01b0388168984612bef565b806001600160a01b0316637196e8416040518163ffffffff1660e01b8152600401600060405180830381600087803b15801561168e57600080fd5b505af11580156116a2573d6000803e3d6000fd5b50505050856001600160a01b031682847fb3ff07f4fe20273bbc264b773aacc6325987f8b0b1aa4c5bdfe5b75fdbd1284c60405160405180910390a450505050505050506112e56001600255565b6004546000908161170084610777565b905060006064611710848261325d565b61171a9084613289565b61172491906132cf565b9050600061173182610623565b905060006064611741868261325d565b61174b9084613289565b61175591906132cf565b979650505050505050565b60008061176b611407565b905061271061177c61012c83613289565b61178691906132cf565b91505090565b61179461189a565b600581101580156117a65750600f8111155b61180c576040517f08c379a000000000000000000000000000000000000000000000000000000000815260206004820152600a60248201527f352d313525206f6e6c790000000000000000000000000000000000000000000060448201526064016102c7565b600455565b61181961189a565b600180546001600160a01b0383167fffffffffffffffffffffffff000000000000000000000000000000000000000090911681179091556118626000546001600160a01b031690565b6001600160a01b03167f38d16b8cac22d99fc7c124b9cd0de2d3fa1faef420bfe791d8c362d765e2270060405160405180910390a350565b6000546001600160a01b031633146112e5576040517f118cdaa70000000000000000000000000000000000000000000000000000000081523360048201526024016102c7565b6040805160608101825260008082526020820181905291810191909152826001600160a01b0316846001600160a01b0316111561191b579192915b6040518060600160405280856001600160a01b03168152602001846001600160a01b031681526020018362ffffff1681525090505b9392505050565b600081602001516001600160a01b031682600001516001600160a01b03161061197f57600080fd5b815160208084015160408086015181516001600160a01b0395861681860152949092168482015262ffffff90911660608085019190915281518085038201815260808501909252815191909201207fff0000000000000000000000000000000000000000000000000000000000000060a08401529085901b7fffffffffffffffffffffffffffffffffffffffff0000000000000000000000001660a183015260b58201527fe34f199b19b2b4f47f68442619d555527d244f78a3297ea89325f843f87b8b5460d582015260f501604080517fffffffffffffffffffffffffffffffffffffffffffffffffffffffffffffffe081840301815291905280516020909101209392505050565b6000806000836001600160a01b0316633850c7bd6040518163ffffffff1660e01b815260040160e060405180830381865afa158015611acc573d6000803e3d6000fd5b505050506040513d601f19601f82011682018060405250810190611af091906131c3565b50505093509350505060008161ffff1611611b67576040517f08c379a000000000000000000000000000000000000000000000000000000000815260206004820152600260248201527f4e4900000000000000000000000000000000000000000000000000000000000060448201526064016102c7565b6000806001600160a01b03861663252c09d784611b858760016133a8565b611b8f91906133ca565b6040517fffffffff0000000000000000000000000000000000000000000000000000000060e084901b16815261ffff9091166004820152602401608060405180830381865afa158015611be6573d6000803e3d6000fd5b505050506040513d601f19601f82011682018060405250810190611c0a91906133fd565b93505050915080611c9e576040517f252c09d7000000000000000000000000000000000000000000000000000000008152600060048201526001600160a01b0387169063252c09d790602401608060405180830381865afa158015611c73573d6000803e3d6000fd5b505050506040513d601f19601f82011682018060405250810190611c9791906133fd565b5091935050505b6108df8242613455565b6000808263ffffffff16600003611d1b576040517f08c379a000000000000000000000000000000000000000000000000000000000815260206004820152600260248201527f425000000000000000000000000000000000000000000000000000000000000060448201526064016102c7565b6040805160028082526060820183526000926020830190803683370190505090508381600081518110611d5057611d506134a1565b602002602001019063ffffffff16908163ffffffff1681525050600081600181518110611d7f57611d7f6134a1565b602002602001019063ffffffff16908163ffffffff1681525050600080866001600160a01b031663883bdbfd846040518263ffffffff1660e01b8152600401611dc891906134d0565b600060405180830381865afa158015611de5573d6000803e3d6000fd5b505050506040513d6000823e601f3d9081017fffffffffffffffffffffffffffffffffffffffffffffffffffffffffffffffe0168201604052611e2b9190810190613601565b91509150600082600081518110611e4457611e446134a1565b602002602001015183600181518110611e5f57611e5f6134a1565b6020026020010151611e7191906136c4565b9050600082600081518110611e8857611e886134a1565b602002602001015183600181518110611ea357611ea36134a1565b6020026020010151611eb59190613709565b905063ffffffff8816611ec88184613729565b975060008360060b128015611ee85750611ee2818461379d565b60060b15155b15611efb5787611ef7816137bf565b9850505b63ffffffff891677ffffffffffffffffffffffffffffffffffffffff00000000602084901b16611f326001600160a01b038361381c565b611f3c919061385f565b9750505050505050509250929050565b60008060008360020b12611f63578260020b611f70565b8260020b611f7090613896565b9050611f9b7ffffffffffffffffffffffffffffffffffffffffffffffffffffffffffff276186138ce565b60020b811115612007576040517f08c379a000000000000000000000000000000000000000000000000000000000815260206004820152600160248201527f540000000000000000000000000000000000000000000000000000000000000060448201526064016102c7565b60008160011660000361202b5770010000000000000000000000000000000061203d565b6ffffcb933bd6fad37aa2d162d1a5940015b70ffffffffffffffffffffffffffffffffff169050600282161561207c576080612077826ffff97272373d413259a46990580e213a613289565b901c90505b60048216156120a65760806120a1826ffff2e50f5f656932ef12357cf3c7fdcc613289565b901c90505b60088216156120d05760806120cb826fffe5caca7e10e4e61c3624eaa0941cd0613289565b901c90505b60108216156120fa5760806120f5826fffcb9843d60f6159c9db58835c926644613289565b901c90505b602082161561212457608061211f826fff973b41fa98c081472e6896dfb254c0613289565b901c90505b604082161561214e576080612149826fff2ea16466c96a3843ec78b326b52861613289565b901c90505b6080821615612178576080612173826ffe5dee046a99a2a811c461f1969c3053613289565b901c90505b6101008216156121a357608061219e826ffcbe86c7900a88aedcffc83b479aa3a4613289565b901c90505b6102008216156121ce5760806121c9826ff987a7253ac413176f2b074cf7815e54613289565b901c90505b6104008216156121f95760806121f4826ff3392b0822b70005940c7a398e4b70f3613289565b901c90505b61080082161561222457608061221f826fe7159475a2c29b7443b29c7fa6e889d9613289565b901c90505b61100082161561224f57608061224a826fd097f3bdfd2022b8845ad8f792aa5825613289565b901c90505b61200082161561227a576080612275826fa9f746462d870fdf8a65dc1f90e061e5613289565b901c90505b6140008216156122a55760806122a0826f70d869a156d2a1b890bb3df62baf32f7613289565b901c90505b6180008216156122d05760806122cb826f31be135f97d08fd981231505542fcfa6613289565b901c90505b620100008216156122fc5760806122f7826f09aa508b5b7a84e1c677de54f3e99bc9613289565b901c90505b62020000821615612327576080612322826e5d6af8dedb81196699c329225ee604613289565b901c90505b6204000082161561235157608061234c826d2216e584f5fa1ea926041bedfe98613289565b901c90505b62080000821615612379576080612374826b048a170391f7dc42444e8fa2613289565b901c90505b60008460020b13156123b2576123af817fffffffffffffffffffffffffffffffffffffffffffffffffffffffffffffffff6132cf565b90505b6123c16401000000008261390c565b156123cd5760016123d0565b60005b6123e19060ff16602083901c6132e3565b949350505050565b60006fffffffffffffffffffffffffffffffff6001600160a01b038616116124905760006124206001600160a01b03871680613289565b9050826001600160a01b0316846001600160a01b0316106124645761245f78010000000000000000000000000000000000000000000000008683612c20565b612488565b61248881867801000000000000000000000000000000000000000000000000612c20565b9150506123e1565b60006124af6001600160a01b0387168068010000000000000000612c20565b9050826001600160a01b0316846001600160a01b0316106124eb576124e67001000000000000000000000000000000008683612c20565b6108df565b6108df8186700100000000000000000000000000000000612c20565b6002805403612542576040517f3ee5aeb500000000000000000000000000000000000000000000000000000000815260040160405180910390fd5b60028055565b6040517fdd62ed3e0000000000000000000000000000000000000000000000000000000081523060048201526001600160a01b0383811660248301526000919085169063dd62ed3e90604401602060405180830381865afa1580156125b1573d6000803e3d6000fd5b505050506040513d601f19601f820116820180604052508101906125d59190613270565b90506111b784846125e685856132e3565b612d1b565b80471015612627576040517fcd7860590000000000000000000000000000000000000000000000000000000081523060048201526024016102c7565b6000826001600160a01b03168260405160006040518083038185875af1925050503d8060008114612674576040519150601f19603f3d011682016040523d82523d6000602084013e612679565b606091505b50509050806126b4576040517f1425ea4200000000000000000000000000000000000000000000000000000000815260040160405180910390fd5b505050565b6040516001600160a01b0384811660248301528381166044830152606482018390526111b79186918216906323b872dd906084015b604051602081830303815290604052915060e01b6020820180517bffffffffffffffffffffffffffffffffffffffffffffffffffffffff8381831617835250505050612dd5565b60008061274183612e51565b50506040517f13ead5620000000000000000000000000000000000000000000000000000000081526001600160a01b0380841660048301528216602482015261271060448201526c010000000000000000000000006064820152919350915073c36442b4a4522e871399cd717abdd847ab11fe889081906313ead562906084016020604051808303816000875af11580156127e0573d6000803e3d6000fd5b505050506040513d601f19601f820116820180604052508101906128049190613920565b600c80547fffffffffffffffffffffffff0000000000000000000000000000000000000000166001600160a01b039290921691821790556040517f32148f67000000000000000000000000000000000000000000000000000000008152606460048201526332148f6790602401600060405180830381600087803b15801561288b57600080fd5b505af115801561289f573d6000803e3d6000fd5b5050505050505050565b73c36442b4a4522e871399cd717abdd847ab11fe8860008080806128cc86612e51565b93509350935093506000604051806101600160405280866001600160a01b03168152602001856001600160a01b0316815260200161271062ffffff1681526020017ffffffffffffffffffffffffffffffffffffffffffffffffffffffffffff2766060020b8152602001620d89a060020b8152602001848152602001838152602001606485605a61295d9190613289565b61296791906132cf565b8152602001606461297985605a613289565b61298391906132cf565b815230602082015260400161299a426102586132e3565b8152509050600080876001600160a01b03166388316456846040518263ffffffff1660e01b81526004016129ce919061393d565b6080604051808303816000875af11580156129ed573d6000803e3d6000fd5b505050506040513d601f19601f82011682018060405250810190612a119190613a01565b5050600d805469ffffffffffffffffffff939093167fffffffffffff0000000000000000000000000000000000000000000000000000909316929092176fffffffffffffffffffffffffffffffff919091166a0100000000000000000000021779ffffffffffffffffffffffffffffffffffffffffffffffffffff167f0d89a0f276600000000000000000000000000000000000000000000000000000179055505050505050505050565b600180547fffffffffffffffffffffffff000000000000000000000000000000000000000016905561134181612e8f565b60408051608081018252600d5469ffffffffffffffffffff16815230602082019081526fffffffffffffffffffffffffffffffff8284018181526060840182815294517ffc6f78650000000000000000000000000000000000000000000000000000000081528451600482015292516001600160a01b03166024840152518116604483015292519092166064830152600091829173c36442b4a4522e871399cd717abdd847ab11fe8891829063fc6f78659060840160408051808303816000875af1158015612bc0573d6000803e3d6000fd5b505050506040513d601f19601f82011682018060405250810190612be49190613a54565b909590945092505050565b6040516001600160a01b038381166024830152604482018390526126b491859182169063a9059cbb906064016126ee565b6000838302817fffffffffffffffffffffffffffffffffffffffffffffffffffffffffffffffff8587098281108382030391505080600003612c7557838281612c6b57612c6b6132a0565b0492505050611950565b808411612cae576040517f227bc15300000000000000000000000000000000000000000000000000000000815260040160405180910390fd5b6000848688096000868103871696879004966002600389028118808a02820302808a02820302808a02820302808a02820302808a02820302808a02909103029181900381900460010186841190950394909402919094039290920491909117919091029150509392505050565b604080516001600160a01b038416602482015260448082018490528251808303909101815260649091019091526020810180517bffffffffffffffffffffffffffffffffffffffffffffffffffffffff167f095ea7b300000000000000000000000000000000000000000000000000000000179052612d9a8482612ef7565b6111b7576040516001600160a01b03848116602483015260006044830152612dcf91869182169063095ea7b3906064016126ee565b6111b784825b6000612dea6001600160a01b03841683612fa1565b90508051600014158015612e0f575080806020019051810190612e0d9190613a78565b155b156126b4576040517f5274afe70000000000000000000000000000000000000000000000000000000081526001600160a01b03841660048201526024016102c7565b60035473f19308f923582a6f7c465e5ce7a9dc1bec6665b1906001600160a01b03168280828480821015612e86578195508094505b50509193509193565b600080546001600160a01b038381167fffffffffffffffffffffffff0000000000000000000000000000000000000000831681178455604051919092169283917f8be0079c531659141344cd1fd0a4f28419497f9722a3daafe3b4186f6b6457e09190a35050565b6000806000846001600160a01b031684604051612f149190613a93565b6000604051808303816000865af19150503d8060008114612f51576040519150601f19603f3d011682016040523d82523d6000602084013e612f56565b606091505b5091509150818015612f80575080511580612f80575080806020019051810190612f809190613a78565b8015612f9657506000856001600160a01b03163b115b925050505b92915050565b60606119508383600084600080856001600160a01b03168486604051612fc79190613a93565b60006040518083038185875af1925050503d8060008114613004576040519150601f19603f3d011682016040523d82523d6000602084013e613009565b606091505b50915091506108df8683836060826130295761302482613089565b611950565b815115801561304057506001600160a01b0384163b155b15613082576040517f9996b3150000000000000000000000000000000000000000000000000000000081526001600160a01b03851660048201526024016102c7565b5080611950565b8051156130995780518082602001fd5b6040517f1425ea4200000000000000000000000000000000000000000000000000000000815260040160405180910390fd5b6000602082840312156130dd57600080fd5b5035919050565b63ffffffff8116811461134157600080fd5b60006020828403121561310857600080fd5b8135611950816130e4565b6001600160a01b038116811461134157600080fd5b60006020828403121561313a57600080fd5b813561195081613113565b7f4e487b7100000000000000000000000000000000000000000000000000000000600052601160045260246000fd5b63ffffffff81811683821602808216919082811461319457613194613145565b505092915050565b805161ffff811681146131ae57600080fd5b919050565b805180151581146131ae57600080fd5b600080600080600080600060e0888a0312156131de57600080fd5b87516131e981613113565b8097505060208801518060020b811461320157600080fd5b955061320f6040890161319c565b945061321d6060890161319c565b935061322b6080890161319c565b925060a088015160ff8116811461324157600080fd5b915061324f60c089016131b3565b905092959891949750929550565b81810381811115612f9b57612f9b613145565b60006020828403121561328257600080fd5b5051919050565b8082028115828204841417612f9b57612f9b613145565b7f4e487b7100000000000000000000000000000000000000000000000000000000600052601260045260246000fd5b6000826132de576132de6132a0565b500490565b80820180821115612f9b57612f9b613145565b60005b838110156133115781810151838201526020016132f9565b50506000910152565b602081526000825160a0602084015280518060c08501526133428160e08601602085016132f6565b6001600160a01b0360208601511660408501526040850151606085015260608501516080850152608085015160a085015260e07fffffffffffffffffffffffffffffffffffffffffffffffffffffffffffffffe0601f8301168501019250505092915050565b61ffff8181168382160190808211156133c3576133c3613145565b5092915050565b600061ffff808416806133df576133df6132a0565b92169190910692915050565b8051600681900b81146131ae57600080fd5b6000806000806080858703121561341357600080fd5b845161341e816130e4565b935061342c602086016133eb565b9250604085015161343c81613113565b915061344a606086016131b3565b905092959194509250565b63ffffffff8281168282160390808211156133c3576133c3613145565b7f4e487b7100000000000000000000000000000000000000000000000000000000600052604160045260246000fd5b7f4e487b7100000000000000000000000000000000000000000000000000000000600052603260045260246000fd5b6020808252825182820181905260009190848201906040850190845b8181101561350e57835163ffffffff16835292840192918401916001016134ec565b50909695505050505050565b604051601f82017fffffffffffffffffffffffffffffffffffffffffffffffffffffffffffffffe016810167ffffffffffffffff8111828210171561356157613561613472565b604052919050565b600067ffffffffffffffff82111561358357613583613472565b5060051b60200190565b600082601f83011261359e57600080fd5b815160206135b36135ae83613569565b61351a565b82815260059290921b840181019181810190868411156135d257600080fd5b8286015b848110156135f65780516135e981613113565b83529183019183016135d6565b509695505050505050565b6000806040838503121561361457600080fd5b825167ffffffffffffffff8082111561362c57600080fd5b818501915085601f83011261364057600080fd5b815160206136506135ae83613569565b82815260059290921b8401810191818101908984111561366f57600080fd5b948201945b8386101561369457613685866133eb565b82529482019490820190613674565b918801519196509093505050808211156136ad57600080fd5b506136ba8582860161358d565b9150509250929050565b600682810b9082900b037fffffffffffffffffffffffffffffffffffffffffffffffffff800000000000008112667fffffffffffff82131715612f9b57612f9b613145565b6001600160a01b038281168282160390808211156133c3576133c3613145565b60008160060b8360060b80613740576137406132a0565b7fffffffffffffffffffffffffffffffffffffffffffffffffffffffffffffffff81147fffffffffffffffffffffffffffffffffffffffffffffffffff800000000000008314161561379457613794613145565b90059392505050565b60008260060b806137b0576137b06132a0565b808360060b0791505092915050565b60008160020b7fffffffffffffffffffffffffffffffffffffffffffffffffffffffffff80000081036137f4576137f4613145565b7fffffffffffffffffffffffffffffffffffffffffffffffffffffffffffffffff0192915050565b77ffffffffffffffffffffffffffffffffffffffffffffffff82811682821681810283169291811582850482141761385657613856613145565b50505092915050565b600077ffffffffffffffffffffffffffffffffffffffffffffffff8084168061388a5761388a6132a0565b92169190910492915050565b60007f800000000000000000000000000000000000000000000000000000000000000082036138c7576138c7613145565b5060000390565b60008160020b7fffffffffffffffffffffffffffffffffffffffffffffffffffffffffff800000810361390357613903613145565b60000392915050565b60008261391b5761391b6132a0565b500690565b60006020828403121561393257600080fd5b815161195081613113565b81516001600160a01b031681526101608101602083015161396960208401826001600160a01b03169052565b506040830151613980604084018262ffffff169052565b506060830151613995606084018260020b9052565b5060808301516139aa608084018260020b9052565b5060a083015160a083015260c083015160c083015260e083015160e0830152610100808401518184015250610120808401516139f0828501826001600160a01b03169052565b505061014092830151919092015290565b60008060008060808587031215613a1757600080fd5b8451935060208501516fffffffffffffffffffffffffffffffff81168114613a3e57600080fd5b6040860151606090960151949790965092505050565b60008060408385031215613a6757600080fd5b505080516020909101519092909150565b600060208284031215613a8a57600080fd5b611950826131b3565b60008251613aa58184602087016132f6565b919091019291505056fea164736f6c6343000814000a",
  "linkReferences": {},
  "deployedLinkReferences": {}
}